:1000000007308A004A2F0000A534A0162D102518AD
:100010003517B1338A060010783C8A060000831633
:1000200006108312061064009F30F700F70B1628A5
:100030000000831606108312061464000C30F700CB
:10004000F70B202823288316061483123B1006186A
:100050003B1464008C30F700F70B2C282F2800305D
:100060003B180130F80008008316061083120610B2
:1000700064000000C108031941288316061083128A
:10008000061464002030F700F70B44284728831635
:100090000610831206140800BF013F08073C031C2A
:1000A00062283E08C0003F08F80003195B280310CF
:1000B000C00CF80B57280130C0054008C10034209F
:1000C000BF0A4D2864002230F700F70B65280000B6
:1000D00008008316061083120610640000008316C1
:1000E0000614640073287428061483123F1006183F
:1000F0003F1400303F180130F80008000130AF0015
:10010000B000B1013211AE012E08073C031C8F284C
:1001100022302E07840083138001AE0A84280F202A
:10012000B2107818B214B2189728201C9B28A1018D
:100130000030F8001329F030BE004C20AE01AD01B4
:100140006920F8080319A6280230AD0064002730A2
:10015000F700F70BA92800006920F808031D2D14EB
:1001600064002730F700F70BB32800002D08033C8C
:10017000031DBC280229FE28AD080319C628321029
:1001800003102D0CF80078183214DD2821083002F5
:100190000318D428321022302E078400831300085D
:1001A0002F05031D3214D9283210210830020319FB
:1001B00032143218DD283008B100321CE728223012
:1001C0002E078400831300082F048000EF282230BC
:1001D0002E07840083132F08FF3A000580000030AB
:1001E00032180130B300C1003420B00A0310AF0D43
:1001F000AF08031DFE28AE0A0130AF002E08073CF1
:1002000003189F283008403C031C0829A1010F292E
:100210003108A1002010A108031920143215003064
:1002200032190130F8000800A10120107E20780862
:100230008A110A127C2F3B08553C031D3229553088
:10024000BE004C20BC013C08073C031C3129223075
:100250003C07840083130008BD00BE004C20BC0A8C
:1002600023293529CC30BE004C2008003C308400C6
:100270008313000803194D290130F800BF30F7003F
:100280006400F70B4029F80B3E294A30F700F70BC2
:10029000472900006400800B3C2908000F205530DE
:1002A000BB001B2183160610831206144430BE00C7
:1002B0004C200330BB00FA30BC003621BB0B5B295D
:1002C0000F205530BB001B21BE30BE004C20AD01BD
:1002D0002D08083C031C9F2932302D07F800FA0135
:1002E0000318FA0A7808BB007A08BC00BE01BD01F9
:1002F0003D08073C031C94296920F80803198C2940
:100300000130F7003D08F80003198A290310F70DA2
:10031000F80B86297708BE0464002730F700F70B36
:100320008F290000BD0A78293E08F8003B088400A8
:1003300083133C18831778088000AD0A6829AF0141
:10034000AE01BC013308AF00AE01FA013208AE04C1
:100350007A08AF042208103C031D002A0310AF0CDA
:10036000AE0C2E08AF00AE014030AE020030031CD0
:100370000130AF0238083902B000B1013008B100D5
:10038000B001B9080319F929FA013908BB007A0844
:10039000BC003108BE003008BD003C08C0003B086E
:1003A000BF00F801F901F701FA014008031DDB293C
:1003B0003F080319F5291030C1000310BD0DBE0D13
:1003C000F70DFA0D40087A02031DE8293F0877026D
:1003D000031CF1293F08F702031CFA034008FA0244
:1003E0000314F80DF90DC10BDD297908B100780867
:1003F000B0002E08B0072F0803182F0FB1070E2AE0
:100400002F08B1002E08B000B00DB10DB00DB10D28
:10041000B00DB10DB00DB10DF030B0053008F800E1
:100420003108F9007908AE007808AD008E30F70089
:100430002E08F8002D08F900FA01AE1F242AF80949
:10044000F909F90A0319F80AF808031D312A79088D
:10045000F800F9010830F702F808031D312AF70106
:100460003A2A0310F81B382AF90DF80DF703312A40
:10047000AE1FF8137A08B0007908AF007808AE0014
:100480007708AD003008B4002F08B3002E08B20082
:100490002D08B100B801B701B6018730B5003108A9
:1004A0000319142BBD0035080319142BBD02031CBE
:1004B0005E2A7F30BD070318142B642A8130BD02E9
:1004C000031C142B0319142B3D08F700F801F90144
:1004D000FA01BC013208BB00BB173308BA0034086C
:1004E000B9001930BD003808B9020318872A013055
:1004F000BA020318872ABB020318872ABC02031812
:10050000872ABC0ABB0ABA0A3808B907B92A3708C9
:10051000BA020318A22A0130BB020318A22ABC02A5
:100520000318A22ABC0ABB0A3708BA073808B90759
:10053000031CB92ABA0A031DB92ABB0A031DB92A2A
:10054000BC0AB92A36088038BB020318B82A013021
:10055000BC020318B82ABC0A36088038BB07370823
:10056000BA07031C962ABB0A031D962ABC0A962AC0
:100570007A14BD0BBC2AC72A0310B90DBA0DBB0DE6
:10058000BC0D0310FA0DF90DF80DBE0D732A3E1CBB
:10059000CF2A0310F80CF90CFA0CBE0CD22AF70380
:1005A0000319142BBE1BFB2A0310B90DBA0DBB0D8A
:1005B000BC0D3808B9020318E72A0130BA02031843
:1005C000E72ABB020318E72ABC02031C0A2B3708E0
:1005D000BA020318F22A0130BB020318F22ABC0245
:1005E000031C0A2B36088038BB020318FB2A013093
:1005F000BC02031C0A2BFA0A031D0A2BF90A031D6D
:100600000A2BF80A031D0A2BF70A0319142BF80CFE
:10061000F90CFA0C3208BD003608BD06BD1F122BBE
:10062000F817182BF813182BF701F801F901FA0144
:100630008A110A12802F3808F80137020318232B79
:100640003708F7002F2BF7010830B900B70DF70D69
:10065000380877020318F700F80DB90B262B0800AD
:100660002030321E3030B3003108F700B11F402B6C
:10067000F709F70A7708B1002D30B300B21732142A
:100680003108B7006430B8001B237708B100303060
:100690007807B4003108B7000A30B8001B233030A7
:1006A0007707B60030307807B5003308F7003030F0
:1006B000340203195F2BB214B21B3215732B3308AB
:1006C000B4002030B3003030350203196B2B3214E4
:1006D000B21BB214732B031D3214031D732B340889
:1006E000B5002030B40032197A2BB2187E2B3218A4
:1006F000822B862B33080C1E7B2B990034080C1E92
:100700007F2B990035080C1E832B990036080C1E90
:10071000872B99008A110A128D2F0B08B2008B13B8
:10072000831603178C170C140000000083120313A8
:10073000B21B8B170318C52B03170C087F39031343
:10074000B20003170D080313B30003170F080313B8
:10075000B40032080C1EAA2B9900330803178D0031
:100760000313340803178F0003130B08B5008B1312
:10077000831603178C170C14000000008312031358
:10078000B51B8B17B10BC52BE52B03170C0D0E0DED
:100790007F390313B20003170D080313B3000317C7
:1007A0000F080313B40032080C1ED42B9900330831
:1007B00003178D000313340803178F008D0A0319E4
:1007C0008F0A03100313B10B8D2B8A110A12972F76
:1007D0008318ED2B463084008313F701F801F901EB
:1007E000FA01C601C701C801C90145084404430410
:1007F000420403192B2C2030CA000310BE0DBF0D7C
:10080000C00DC10DC60DC70DC80DC90D4508490263
:10081000031D142C44084802031D142C43084702EE
:10082000031D142C42084602031C252C4208C60254
:100830004308031C430FC7024408031C440FC802AB
:100840004508031C450FC9020314F70DF80DF90DF7
:10085000FA0DCA0BFD2B46088000840A4708800069
:10086000840A48088000840A4908800008000408B7
:10087000B6003508B8000319C92C3408C100330884
:10088000C0003208BF003108BE00C501C4012030DD
:10089000C3008230C2003E080319BB2CC6004208C8
:1008A0000319BB2CC60703185C2C7F30C602031C3F
:1008B000BB2C0319BB2C602C8130C6070318BB2C42
:1008C0004608F700F801F901FA013F08CA00CA1703
:1008D0004008C9004108C8001830C600C701481CBC
:1008E000892C4508FA07031C7B2CF90A031D7B2C75
:1008F000F80A0319C7174408F907031C822CF80AE1
:100900000319C7174308C000C0174008F8070318A9
:10091000C717C70DF80CF90CFA0CCA0CC90CC80C97
:100920000310C60B6E2C0130F7070318BB2CF81B05
:10093000A02CCA0DFA0DF90DF80DF7030319BB2C05
:10094000CA1FB12CFA0A031DB12CF90A031DB12CE0
:10095000F80A031DB12CF80CF90CFA0CF70A03196C
:10096000BB2C3F08C7004308C706C71FB92CF817A0
:10097000BF2CF813BF2CF701F801F901FA017A082E
:10098000B4007908B3007808B2007708B100B80B5A
:100990003D2C7E30F700F801B21BF817F901FA017F
:1009A00083103408C1003308C0003208BF0031088A
:1009B000BE007A08C5007908C4007808C30077082B
:1009C000C20080308318C306C801C9013F08C700B0
:1009D0004308C7063E080319D12DC600F700420898
:1009E0000319DA2DC6020319762D031C342D430892
:1009F000CC00CC174408CB004508CA00C90103103D
:100A0000CC0CCB0CCA0CC90CC60BFE2CC71F0B2D73
:100A10004814EE2D481046104816413084008313C8
:100A2000032E4812C71B1E2D461C292DCC0CCB0CA7
:100A3000CA0CC90CF70A0319E92D292DCC1B2C2D42
:100A40000310C90DCA0DCB0DCC0DF7030319E92D09
:100A50001E2D4817962D48133F08C700C71F322D7B
:100A6000CC17E22DCC13E22D4208C600F7003E0859
:100A7000C6023F08CC00CC174008CB004108CA0092
:100A8000C9010310CC0CCB0CCA0CC90CC60B402DF1
:100A9000C71F4D2DC814EE2DC8104610C81645307E
:100AA00084008313032EC812C71B602D461C6B2DB8
:100AB000CC0CCB0CCA0CC90CF70A0319E92D6B2D11
:100AC000CC1B6E2D0310C90DCA0DCB0DCC0DF70339
:100AD0000319E92D602DC817962DC8134308C700C8
:100AE000C71F742DCC17E22DCC13E22D4308CC0088
:100AF000CC174408CB004508CA00C71F832DCC1370
:100B00004815EE2D4811C901461041308400831369
:100B1000032EC71BAC2D3F08C700461C962DCC0CDE
:100B2000CB0CCA0CC90CF70A0319E92DC91FA72D54
:100B3000CA0A031DA72DCB0A031DA72DCC0A031D2E
:100B4000A72DCC0CCB0CCA0CF70A0319E92D481BB6
:100B50002B2DC81B6D2DCB2D8030CC06CC1FB42D7A
:100B6000EE2D4308C700C12D3F08C700CC08031D68
:100B7000C12DCB08031DC12DCA08031DC12DF701CE
:100B8000E22DCC1BCB2D0310C90DCA0DCB0DCC0D06
:100B9000F70BC12DE92DC71FCF2DCC17E22DCC139C
:100BA000E22D4208F7004308CC004408CB0045087A
:100BB000CA00E22D3E08F7003F08CC004008CB00F9
:100BC0004108CA004C08F8004B08F9004A08FA002E
:100BD000212EF701F801F901FA01212EC901CA09F4
:100BE000CB09CC09C909C90A031DFC2DCA0A031D7A
:100BF000FC2DCB0A0319CC0A48180A2DC8184C2D15
:100C00004819822DB12D0008CA07031C0D2ECB0AEE
:100C1000031D0D2ECC0A0319461484030008CB07CC
:100C2000031C152ECC0A0319461484030008801FE8
:100C3000803ACC0703184614481A112DC81A532DB0
:100C4000892D7A08B4007908B3007808B2007708D3
:100C5000B1003408C1003308C0003208BF003108B9
:100C6000BE003E08B63CBE00FA013F08C200BF17F6
:100C70000310BF0CC00CC10CFA0CF90CF80CF70CEB
:100C8000BE0B382EC21F4F2EF709F809F909FA09D1
:100C9000F70A0319F80A0319F90A0319FA0A7A0874
:100CA000B4007908B3007808B2007708B100B41F27
:100CB000662EB603B616B109B209B309B409B10A72
:100CC0000319B20A0319B30A0319B40A3B30BD0071
:100CD0009A30BC00CA30BB00BA010A30B8003508EF
:100CE0000319B60A83143130840083133408C10019
:100CF0003308C0003208BF003108BE003D08C500FF
:100D00003C08C4003B08C3003A08C200E823780846
:100D1000F708031D9E2E350A380203199E2E360849
:100D20000319A02E0F3938020319982E0318D42E58
:100D3000B61BD42E361BA02E2030CF2E2030B60569
:100D4000B61EAF2EB6123508031DB6037708B600DF
:100D50002D300C1EA92E99003608F700B601350873
:100D60003802031DBE2E7708B6002E300C1EB62E9C
:100D700099003608F7002030B60500303030B61E36
:100D8000CF2EB6123508031DB6037708B6002D30F6
:100D90000C1EC82E99003608F700B6013030F70750
:100DA00077080C1ED12E990083103D08C1003C0825
:100DB000C0003B08BF003A08BE00C501C401C30122
:100DC0000A30C200E8237A08BD007908BC00780820
:100DD000BB007708BA00B80B722E8A110A12A42F32
:100DE0000B08AD008B13831603178C170C1400002F
:100DF000000083120313AD1B8B1703170C087F39F8
:100E00000319462F0313AD0003170D080313AE009B
:100E100003170F080313AF002D080C1E0D2F9900A8
:100E20002E0803178D0003132F0803178F000313D9
:100E30000B08B0008B13831603178C170C140000DB
:100E4000000083120313B01B8B1703170C0D0E0D3C
:100E50007F390319462F0313AD0003170D08031341
:100E6000AE0003170F080313AF002D080C1E362F1A
:100E700099002E0803178D0003132F0803178F0006
:100E80008D0A03198F0A0313F02E031703138A1117
:100E90000A12BA2F03081F3983008316031787111C
:100EA000193003139900A6309800903083129800EF
:100EB000AB01AA01831603170908C039890003137F
:100EC0001F129F12003003178800831287018801C8
:100ED0008901831303132010A101A201A301A4011E
:100EE000A501A601A701A801A9010317870188018F
:100EF00089010313AC011429F8080319B32F4E29F3
:100F00007A08B0007908AF007808AE007708AD0025
:100F10002C08B1001830B200302B053003178D00BB
:100F200000308F00031004300313B1008D2B4430C8
:100F300084003008B4002F08B3002E08B2002D083A
:100F4000B1000130B500372C0A300C1EA52F9900D6
:100F50000D300C1EA92F9900AC0A7E20F808031D45
:100F60007F2FAC01BA2F0C3003178D0000308F009B
:100F70000313F02E0430AD00FA30BC003621AD0B67
:060F8000BC2F7B2F630073
:04400E00E22FFF3E60
:00000001FF
;PIC16F886
;CRC=5F60  CREATED="18-Dec-14 23:21"
